:020000040800F2
:1000000000000120C5090008150A0008150A0008AB
:10001000150A0008150A0008150A0008000000006B
:10002000000000000000000000000000150A0008A9
:10003000150A000800000000150A000869080008F9
:10004000150A0008150A0008150A0008150A000814
:10005000150A0008150A0008150A0008150A000804
:10006000150A0008150A0008150A0008150A0008F4
:10007000150A0008150A0008150A0008150A0008E4
:10008000150A0008150A0008150A000800000000FB
:10009000000000000000000000000000150A000839
:1000A000150A0008150A0008150A0008150A0008B4
:1000B000150A0008150A0008150A0008150A0008A4
:1000C000150A0008150A0008150A0008150A000894
:1000D000150A0008150A0008150A000800000000AB
:1000E000150A0008150A0008150A0008000000009B
:1000F000000000000000000000000000150A0008D9
:1001000000000000150A0008150A0008150A00087A
:1001100000000000000000000000000000000000DF
:10012000150A0008150A0008150A0008150A000833
:10013000150A000800000000000000000000000098
:10014000000000000000000000000000150A000888
:10015000150A0008150A0008150A0008150A000803
:10016000150A0008150A0008000000000000000041
:10017000000000000000000000000000000000007F
:1001800000000000150A0008000000000000000048
:04019000150A000844
:1001940010B5054C237833B9044B13B10448AFF3BD
:1001A40000800123237010BD000000200000000027
:1001B400600A000808B5034B1BB103490348AFF3B9
:1001C400008008BD0000000004000020600A000850
:1001D40080B582B000AF00237B6000F03FF8034697
:1001E4007B607B68002B03D1002000F043F805E01E
:1001F4007B68012B02D1012000F03CF800BF0837D6
:10020400BD4680BD80B582B000AF00F0C7F803469C
:10021400FB71FB79184600F03FF800BF0837BD4674
:1002240080BD80B584B000AF0346FB710023FB732F
:10023400FB79012B03D1012000F0B9F808E0FB7928
:10024400002B03D1002000F0B2F801E00123FB737E
:10025400FB7B18461037BD4680BD000080B400AF5C
:10026400034B1B681B781846BD465DF8047B70473A
:10027400780A000880B483B000AF0346FB71054BD5
:100284005B68FA791A7000BF0C37BD465DF8047BD1
:10029400704700BF780A000880B483B000AF0346FB
:1002A400FB71054B1B68FA791A7000BF0C37BD4609
:1002B4005DF8047B704700BF800A000880B483B0F7
:1002C40000AF0346FB71054B5B68FA791A7000BFF7
:1002D4000C37BD465DF8047B704700BF840A0008F4
:1002E40080B400AF034B1B681B781846BD465DF80D
:1002F400047B7047840A000880B400AF034B1B687A
:100304001B781846BD465DF8047B70478C0A0008CC
:1003140080B584B000AF0346FB710B4B1B78FB73B5
:100324000A4B1B68002B06D0084B1B68FA79104651
:1003340098470346FB73FB791846FFF772FFFB7B74
:1003440018461037BD4680BD250000202800002037
:1003540080B582B000AF0023FB71FFF7C1FF0346F5
:10036400FB71FB791846FFF7A9FF00BF0837BD46AC
:1003740080BD80B582B000AF0023FB710023BB7148
:10038400FFF7BAFF0346FB71FB791846FFF7C0FF7E
:100394000346BB7100BF0837BD4680BD80B500AFC2
:1003A4000321002000F09EF90346184680BD80B565
:1003B40082B000AF0346FB71FB791A46002100208E
:1003C40000F022F900BF0837BD4680BD90B482B06A
:1003D40000AF0446084611461A462346FB710346FD
:1003E400BB710B467B7113463B71FB79022B00F00A
:1003F400A680022B00F3F180002B02D0012B4FD0FA
:10040400EBE0784B1B68BA795200032101FA02F23F
:10041400D2431146734A0B401360724B1B687979BF
:10042400BA79520001FA02F211466E4A0B43136084
:100434007B79002B02D0012B13D0CEE06A4B1B68D2
:10044400BA795200032101FA02F2D2431146664AF4
:100454000B401360644B1A683B79634913430B6088
:100464001DE03B79002B02D0012B0CD016E05F4B32
:100474001B68BA79012101FA02F2D24311465B4AA0
:100484000B4013600AE0594B1B68BA79012101FA49
:1004940002F21146554A0B43136000BF00BF9CE0B3
:1004A400534B1B68BA795200032101FA02F2D2437A
:1004B40011464F4A0B4013604D4B1B687979BA794A
:1004C400520001FA02F21146494A0B4313607B7948
:1004D400002B02D0012B13D07FE0464B1B68BA7966
:1004E4005200032101FA02F2D2431146414A0B4061
:1004F4001360404B1A683B793E4913430B601DE07F
:100504003B79002B02D0012B0CD016E03A4B1B6830
:10051400BA79012101FA02F2D2431146364A0B405C
:1005240013600AE0344B1B68BA79012101FA02F224
:100534001146314A0B43136000BF00BF4DE02F4BFF
:100544001B68BA795200032101FA02F2D243114620
:100554002A4A0B401360294B1B687979BA795200F7
:1005640001FA02F21146254A0B4313607B79002BF2
:1005740002D0012B13D02FE0214B1B68BA79520013
:10058400032101FA02F2D24311461D4A0B401360C3
:100594001B4B1A683B791A4913430B601CE03B79E7
:1005A400002B02D0012B0CD016E0164B1B68BA7935
:1005B400012101FA02F2D2431146124A0B401360A0
:1005C4000AE0104B1B68BA79012101FA02F21146C4
:1005D4000C4A0B43136000BF00BF00BF0837BD4681
:1005E40090BC7047000002400C000240040002402E
:1005F400000402400C0402400404024000080240CB
:100604000C0802400408024080B483B000AF0346E3
:10061400FB710B46BB7113467B71FB79022B3AD0FD
:10062400022B52DC002B02D0012B1AD04DE07B7937
:10063400012B0AD1284B1B68BA79012101FA02F275
:100644001146254A0B4313603FE0234B1B68BA79DC
:10065400012101FA02F2D24311461F4A0B401360F2
:1006640033E07B79012B0AD11C4B1B68BA79012139
:1006740001FA02F21146194A0B43136025E0174BA5
:100684001B68BA79012101FA02F2D2431146134AD6
:100694000B40136019E07B79012B0AD1104B1B68C6
:1006A400BA79012101FA02F211460D4A0B43136093
:1006B4000AE00B4B1B68BA79012101FA02F2D2431A
:1006C4001146074A0B40136000BF00BF0C37BD46FC
:1006D4005DF8047B704700BF14000240140402401C
:1006E4001408024080B485B000AF03460A46FB718B
:1006F4001346BB710023FB73FB79022B1AD0022B28
:1007040022DC002B02D0012B0AD01DE0124B1A6808
:10071400BB7922FA03F3DBB203F00103FB7313E0AA
:100724000E4B1A68BB7922FA03F3DBB203F0010320
:10073400FB7309E0094B1A68BB7922FA03F3DBB2B5
:1007440003F00103FB7300BFFB7B18461437BD465F
:100754005DF8047B704700BF1000024010040240A3
:1007640080B483B000AF03460A46FB711346BB71E5
:10077400BB791F2B2AD8FB79022B1CD0022B25DC3A
:10078400002B02D0012B0BD020E0134B1B68BA794D
:10079400012101FA02F211460F4A0B43136015E0DE
:1007A4000E4B1B68BA79012101FA02F211460B4A79
:1007B4000B4313600AE00A4B1B68BA79012101FA62
:1007C40002F21146064A0B43136000BF00BF0C3708
:1007D400BD465DF8047B7047303802404038024023
:1007E4004438024080B400AF0E4B1B680D4A43F0FE
:1007F4000103136000BF0B4B1B6803F00203002BC3
:10080400F9D0094B1B68084A23F001031360064B17
:100814001B68054A23F00203136000BFBD465DF860
:10082400047B7047003802400838024080B400AFAF
:100834000B4B1B680A4A23F004031360084B1B6824
:10084400074A23F001031360054B1B68044A23F095
:100854000203136000BFBD465DF8047B704700BF10
:1008640010E000E080B500AF0D4B1B78002B0ED1DB
:100874000C4B1B680B4A23F002031360094B1B68E3
:10088400084A43F001031360064B00225A60064BEA
:100894001B689847034B034A5B68936000BF80BDA5
:1008A4002C00002010E000E03000002080B500AFF4
:1008B400FFF798FF00210020FFF752FFFFF7B6FF74
:1008C4000023012200210020FFF780FD01230022E4
:1008D40003210020FFF77AFD00BF80BD80B582B000
:1008E40000AF0023FB71FB790A2B10D100230122F6
:1008F40006210020FFF76AFD012206210020FFF7F0
:1009040083FEFFF77FFCFB790133FB71EBE7FB7997
:100914000C2B10D10023012205210020FFF756FDE6
:10092400012205210020FFF76FFEFFF711FDFB797F
:100934000133FB71D7E7FB790F2B10D10023012280
:1009440004210020FFF742FD012204210020FFF7CB
:100954005BFEFFF73DFCFB790133FB71C3E7FB79D9
:10096400122B0FD10023012202210020FFF72EFDBC
:10097400012202210020FFF747FEFFF7FAFC0023C3
:10098400FB71B0E7FB790133FB71ACE780B500AFD5
:10099400FFF78CFF0023012207210020FFF716FD3B
:1009A400012207210020FFF72FFEFFF797FF00BF6A
:1009B400FDE780B400AF00BFBD465DF8047B70471F
:1009C400DFF834D0FFF7F5FF0C480D490D4A00233A
:1009D40002E0D458C4500433C4188C42F9D30A4AF0
:1009E4000A4C002301E013600432A242FBD300F05E
:1009F40011F8FFF7CBFF7047000001200000002032
:100A040000000020980A00080000002034000020A4
:100A1400FEE7000070B50D4D0D4C641BA4100026BC
:100A2400A64209D10B4D0C4C00F018F8641BA4101D
:100A34000026A64205D170BD55F8043B98470136FF
:100A4400EEE755F8043B98470136F2E7900A0008B0
:100A5400900A0008900A0008940A0008F8B500BF3C
:100A6400F8BC08BC9E467047F8B500BFF8BC08BC8B
:040A74009E467047E3
:100A7800240000201C00002020000020200000206E
:080A8800240000201C000020E6
:040A9000B9010008A0
:040A940095010008C0
:04000005080009C521
:00000001FF
